S00B000070736F2E73726563C7
S113000033C100004FC100004DC100004BC10000CE
S113001049C1000047C1000045C1000043C10000C0
S113002041C100003FC100003DC100003BC10000D0
S113003039C1000037C1000035C1000033C10000E0
S113004031C100002FC100002DC100002BC10000F0
S113005029C1000027C1000025C1000023C1000000
S113006021C10000BAC40000DCC400001BC10000B0
S113007019C1000017C1000015C1000013C1000020
S113008011C100000FC100000DC100000BC1000030
S113009009C1000007C1000005C1000003C1000040
S11300A001C10000FFC00000FDC00000FBC0000053
S11300B0F9C00000F7C00000F5C00000F3C0000064
S11300C0F1C00000EFC00000EDC00000EBC0000074
S11300D0E9C00000E7C00000E5C00000E3C0000084
S11300E0E1C0000007634236B79BD8A71A396856A7
S11300F018AEBAAB558C1D3CB7CC5763BD6DEDFD46
S1130100753EF6177231BF000000803F0800000002
S1130110BE922449123EABAAAA2ABECDCCCC4C3EF8
S113012000000080BEABAAAAAA3E00000000BF00E7
S11301300000803F0000000000084178D3BB4387E3
S1130140D1133D190E3CC3BD4282AD2B3E68EC82F7
S113015076BED98FE1A93E4C80EFFFBE01C4FF7F7C
S11301603F00000000006E616E00696E6600004092
S11301707A10F35A00A0724E18090010A5D4E800B2
S113018000E87648170000E40B54020000CA9A3BCA
S1130190000000E1F5050000809698000000404250
S11301A00F000000A08601000000102700000000DE
S11301B0E803000000006400000000000A000000E2
S11301C000000100000000002C76D888DC674F088E
S11301D023DFC1DFAE59E1B1B796E5E3E453C63A94
S11301E0E651997696E8E6C28426EB898C9B62ED0B
S11301F0407C6FFCEFBC9C9F40F2BAA56FA5F490C5
S1130200055A2AF75C936B6CF9676DC11BFCE0E43B
S11302100D47FEF520E6B500D0ED902E0300943591
S113022077050080841E080000204E0A000000C8E4
S11302300C333333330F986E12831141EF8D211435
S1130240893BE65516CFFEE6DB18D1844B381BF705
S11302507C1D901DA4BBE424203284725E228100A4
S1130260C9F124ECA1E53D2711241FBECFEFD1E253
S1130270DEBFCDBF12E0A0E0B2E0E8E9FFE100E0BC
S11302800BBF02C007900D92AA3CB107D9F723E037
S1130290AAECB2E001C01D92AA3DB207E1F7C9D1B0
S11302A00C94CA0FADCE4F925F926F927F928F9251
S11302B09F92AF92BF92CF92DF92EF92FF920F93F1
S11302C01F93CF93DF934B015A01280139018B010E
S11302D00150110984E190E00E942C0CEC01A3016F
S11302E09201C701B601E0D36B017C01B801012E74
S11302F0000C880B990BABD49B01AC01C701B60170
S11303003CD46B017C01B5010B2C000C880B990BC0
S11303109ED49B01AC01C701B6014DD5A301920146
S1130320C4D3688379838A839B836C837D838E8320
S11303309F8380E090E0A0E2B1E48C879D87AE8744
S1130340BF87188619861A861B860A151B0541F471
S113035082E0881A9108998A888A1B8A1A8A13C0AB
S1130360A114B10439F4198B088B81E090E09B8BC4
S11303708A8B09C0C5010197998B888B8FEFA81AC6
S1130380B80ABB8AAA8ACE01DF91CF911F910F913F
S1130390FF90EF90DF90CF90BF90AF909F908F90A1
S11303A07F906F905F904F900895CF92DF92EF927D
S11303B0FF9220E030E040E450E460D520E030E4F7
S11303C04AE954E471D36B017C0120E030E0A901D7
S11303D0EED4181624F0C701B601905802C0C70124
S11303E0B601FF90EF90DF90CF9008950E94940D96
S11303F0BC01990F880B990B2AD420E03EEF4FEFF4
S113040056E4BBC308954F925F926F927F928F928E
S11304109F92AF92BF92CF92DF92EF92FF92CF93CF
S1130420DF93EC017B0149015A01E0DF2B013C0120
S1130430288139814A815B81C501B40135D34B01DF
S11304405C0123E333E343E050E4C301B201B3D4DA
S11304509B01AC01C501B401AED49B01AC0168851C
S113046079858A859B8521D3688779878A879B8745
S1130470BDDF4B015C01288139814A815B81F70131
S113048064817581868197810FD36B017C0123E39D
S113049033E343E050E4C501B4018DD49B01AC01C6
S11304A0C701B60188D4288539854A855B85FDD284
S11304B02CE234ED4AE35FE37ED46B017C01688770
S11304C079878A879B8720E030E040EC5FE36FD434
S11304D018164CF480E090E0A0ECBFE3888799877D
S11304E0AA87BB8711C020E030E040EC5FEBC70176
S11304F0B6013FD3882344F480E090E0A0ECBFEB46
S113050088879987AA87BB87CE01DF91CF91FF9017
S1130510EF90DF90CF90BF90AF909F908F907F909F
S11305206F905F904F9008954F925F926F927F9279
S11305308F929F92AF92BF92CF92DF92EF92FF92EF
S11305400F931F93CF93DF93EC016A017B01480162
S11305505901288539854A855B85688179818A8135
S11305609B81A3D22B013C01A501940120D4181630
S11305702CF0488259826A827B8204C088829982E4
S1130580AA82BB82A7019601688179818A819B81B5
S1130590F0D2882324F4C882D982EA82FB82CE0175
S11305A0DF91CF911F910F91FF90EF90DF90CF904B
S11305B0BF90AF909F908F907F906F905F904F907F
S11305C008958F929F92AF92BF92CF92DF92EF9253
S11305D0FF920F931F93CF93DF93D62EE72EF82E1F
S11305E0C92E022F132FD42FC52FDFDE4B015C0140
S11305F0602F712F8D2F9C2FD8DE9B01AC01C5017C
S1130600B401B7D2882324F40D2D1E2DDF2DCC2D5B
S1130610602F712F8D2F9C2FDF91CF911F910F9100
S1130620FF90EF90DF90CF90BF90AF909F908F900E
S113063008952F923F924F925F926F927F928F9282
S11306409F92AF92BF92CF92DF92EF92FF920F935D
S11306501F93CF93DF9387E690E0ACD1789480E149
S113066092E09093D7038093D60380900E029090EB
S11306700F0284E1282F289DC001299D900D11248B
S11306800E942C0C5C018114910439F13C01C0E0FE
S1130690D0E060910A0270910B0280E090E0D5D224
S11306A06B017C016091CA027091CB0280E090E002
S11306B0CCD28B019C01AE01B401D3018D919C91EC
S11306C0F2DDF301819391933F01219680900E0214
S11306D090900F02C815D905E0F2D5018D909C9039
S11306E080910C0290910D02892B09F005C112C171
S11306F0F701C191D1917F01688179818A819B81C0
S113070054DE6C877D878E879F87688179818A8193
S11307109B814BDE2B013C016C817D818E819F810D
S113072044DE9B01AC01C301B20123D288230CF047
S113073040C0688179818A819B816C837D838E83AB
S11307409F8333DE20E030E0A90113D2811131C050
S11307508EE192E00E94DF0E8F858F938E858F93BA
S11307608D858F938C858F938B818F938A818F93C3
S113077089818F9388818F931F930F9383E392E0F2
S11307809F938F930E94CC0EFAEA26EE36E981E01D
S1130790F150204030408040D9F70000ADB7BEB7DB
S11307A01C960FB6F894BEBF0FBEADBF80E090E0BC
S11307B0EEC0688179818A819B81F7DD2B013C0140
S11307C0F4016481758186819781EFDD9B01AC0121
S11307D0C301B201CED1882344F53F922F922BE579
S11307E032E03F932F930E94CC0E8F858F938E859A
S11307F08F938D858F938C858F938B818F938A8133
S11308008F9389818F9388818F93A8E6B2E0BF93F9
S1130810AF930E94CC0E2DB73EB7225F3F4F0FB669
S1130820F8943EBF0FBE2DBF4E010F5F1F4F809146
S11308300E0290910F020817190708F459CF892B5B
S113084009F44EC0C0E0D0E0D6010D911C91D8014E
S11308505296ED91FC915397EE0FFF1FEA0DFB1D8D
S11308600190F081E02D20813181428153815096A5
S1130870ED91FC915197EE0FFF1FEA0DFB1D0190C6
S1130880F081E02D60817181828193819ADE9B01E8
S1130890AC01B401C801B7DD7C0160910A0270911A
S11308A00B0280E090E0D1D12B013C016091CA029F
S11308B07091CB0280E090E0C8D1AB01BC01930100
S11308C08201C70131DEF601819391936F01219674
S11308D080910E0290910F02C817D90708F4B4CF83
S11308E091012F5F3F4F80910C0290910D022816C9
S11308F0390680F4190103C022242394312C8091F9
S11309000E0290910F02892B59F36501750100E0E5
S113091010E0EECE8CE892E00E94DF0ED4011F9628
S11309208C911F978F931E968C911E978F931D9673
S11309308C911D978F931C968C911C978F93139673
S11309408C9113978F9312968C9112978F93119683
S11309508C9111978F938C918F9385EA92E09F935A
S11309608F930E94CC0EBAEAE6EEF6E921E0B1508C
S1130970E040F0402040D9F700008DB79EB70A96BA
S11309800FB6F8949EBF0FBE8DBF81E090E0DF915B
S1130990CF911F910F91FF90EF90DF90CF90BF9078
S11309A0AF909F908F907F906F905F904F903F900B
S11309B02F9008959093C5008093C40088E9809394
S11309C0C10086E08093C20010924E0310924F0340
S11309D01092CC021092CD0208951F920F920FB67E
S11309E00F9211240BB60F928F939F93EF93FF9363
S11309F08091C600E0914F03EF5FEF77E0934F03E0
S1130A0090914E03F0E0E05BFC4F8083FF91EF9107
S1130A109F918F910F900BBE0F900FBE0F901F9060
S1130A2018951F920F920FB60F9211240BB60F92C6
S1130A308F939F93EF93FF939091CD028091CC027B
S1130A40981769F0E091CC02EF5FEF77E093CC0266
S1130A50F0E0E253FD4F80818093C60005C0E1ECD5
S1130A60F0E080818F7D8083FF91EF919F918F9142
S1130A700F900BBE0F900FBE0F901F9018952091F2
S1130A80CD022F5F2F779091CC022917E1F3E22F4B
S1130A90F0E0E253FD4F80832093CD02E1ECF0E0DF
S1130AA080818062808308955058BB27AA270ED086
S1130AB044C135D130F03AD120F031F49F3F11F4E4
S1130AC01EF42AC10EF4E095E7FB20C1E92F46D1BC
S1130AD080F3BA17620773078407950718F071F457
S1130AE09EF55EC10EF4E0950B2EBA2FA02D0B01DE
S1130AF0B90190010C01CA01A0011124FF27591B5F
S1130B0099F0593F50F4503E68F11A16F040A22F64
S1130B10232F342F4427585FF3CF469537952795D5
S1130B20A795F0405395C9F77EF41F16BA0B620BD4
S1130B30730B840BBAF09150A1F0FF0FBB1F661F1B
S1130B40771F881FC2F70EC0BA0F621F731F841F5E
S1130B5048F4879577956795B795F7959E3F08F084
S1130B60B3CF9395880F08F09927EE0F9795879543
S1130B700895A8D008F481E008950CD0DEC0D6D042
S1130B8040F0CDD030F021F45F3F19F0BFC05111D7
S1130B9008C1C2C0E3D098F39923C9F35523B1F334
S1130BA0951B550BBB27AA2762177307840738F0D8
S1130BB09F5F5F4F220F331F441FAA1FA9F333D037
S1130BC00E2E3AF0E0E830D091505040E695001CEB
S1130BD0CAF729D0FE2F27D0660F771F881FBB1FA7
S1130BE0261737074807AB07B0E809F0BB0B802D81
S1130BF0BF01FF2793585F4F2AF09E3F510568F0CD
S1130C0085C0CFC05F3FECF3983EDCF386957795C3
S1130C106795B795F7959F5FC9F7880F911D9695CE
S1130C20879597F90895E1E0660F771F881FBB1F2A
S1130C30621773078407BA0720F0621B730B840BD7
S1130C40BA0BEE1F88F7E0950895E89409C097FB66
S1130C503EF490958095709561957F4F8F4F9F4F8F
S1130C609923A9F0F92F96E9BB279395F6958795D3
S1130C7077956795B795F111F8CFFAF4BB0F11F496
S1130C8060FF1BC06F5F7F4F8F4F9F4F16C088233D
S1130C9011F096E911C0772321F09EE8872F762F73
S1130CA005C0662371F096E8862F70E060E02AF0B4
S1130CB09A95660F771F881FDAF7880F96958795A0
S1130CC097F90895990F0008550FAA0BE0E8FEEF75
S1130CD016161706E807F907C0F012161306E407FC
S1130CE0F50798F0621B730B840B950B39F40A26F5
S1130CF061F0232B242B252B21F408950A2609F4D3
S1130D00A140A6958FEF811D811D089597F99F67D6
S1130D1080E870E060E008959FEF80EC089500247F
S1130D200A941616170618060906089500240A944C
S1130D3012161306140605060895092E0394000CD2
S1130D4011F4882352F0BB0F40F4BF2B11F460FF61
S1130D5004C06F5F7F4F8F4F9F4F089557FD90588A
S1130D60440F551F59F05F3F71F04795880F97FB6B
S1130D70991F61F09F3F79F0879508951216130625
S1130D801406551FF2CF4695F1DF08C01616170654
S1130D901806991FF1CF8695710561050894089589
S1130DA0E894BB2766277727CB0197F908958ADF54
S1130DB008F48FEF08950BD0C0CFB1DF28F0B6DF71
S1130DC018F0952309F0A2CFA7CF1124EACFC6DFEC
S1130DD0A0F3959FD1F3950F50E0551F629FF0014A
S1130DE0729FBB27F00DB11D639FAA27F00DB11DA3
S1130DF0AA1F649F6627B00DA11D661F829F22272C
S1130E00B00DA11D621F739FB00DA11D621F839FB2
S1130E10A00D611D221F749F3327A00D611D231F88
S1130E20849F600D211D822F762F6A2F11249F57D6
S1130E3050408AF0E1F088234AF0EE0FFF1FBB1FF9
S1130E40661F771F881F91505040A9F79E3F510598
S1130E5070F05CCFA6CF5F3FECF3983EDCF3869551
S1130E6077956795B795F795E7959F5FC1F7FE2B43
S1130E70880F911D9695879597F90895FA01EE0FBD
S1130E80FF1F30962105310599F16115710561F453
S1130E908038BFE39B0749F168949038810561F07D
S1130EA08038BFEF9B0741F0992342F5FF3FE105EE
S1130EB03105210511F1E8940894E795D901AA2395
S1130EC029F4AB2FBE2FF85FD0F310C0FF5F70F48E
S1130ED0A695E0F7F73950F019F0FF3A38F49F7708
S1130EE09F930CD00F9007FC905808953EF014CFB8
S1130EF060E070E080E89FE308954FE79F775F9399
S1130F004F933F932F939ED02F913F914F915F9199
S1130F1052DF05C019F40EF0F9CE42CFFDCE26DF24
S1130F20C8F39638C0F707F80F92E8942BE33AEA2F
S1130F3048EB5FE74EDF0F920F920F924DB75EB70B
S1130F400F92C0D0E4EEF0E016D04F915F91EF9194
S1130F50FF91E595EE1FFF1F49F0FE57E068442717
S1130F60EE0F441FFA95E1F74195550B32D00F90DF
S1130F7007FE26C00895DF93CF931F930F93FF922C
S1130F80EF92DF927B018C01689405C0DA2EEF01A9
S1130F901EDFFE01E894A591259135914591559167
S1130FA0AEF3EF0193DDFE019701A801DA9479F71E
S1130FB0DF90EF90FF900F911F91CF91DF910895F3
S1130FC09B01AC0160E070E080E89FE3D6CD9ECE4B
S1130FD0ACC0CCDEE8F39923D9F3940F511DBBF3D5
S1130FE09150504094F059F0882332F0660F771FE7
S1130FF0881F91505040C1F79E3F510544F7880F18
S1131000911D9695879597F908955F3FACF0983EAA
S11310109CF0BB27869577956795B79508F4B160E2
S11310209395C1F7BB0F58F711F460FFE8CF6F5FDA
S11310307F4F8F4F9F4FE3CFB4CE0EF076C06CCE70
S1131040689464CE93DEC8F39923D1F3C6F3DF9397
S1131050CF931F930F93FF92C92FDD2788232AF084
S11310602197660F771F881FDAF720E030E040E809
S11310705FEB9FE3883920F0803E30F021968F7734
S113108014DDECE0F1E003C010DDE9E3F1E073DF2F
S11310908B01BE01EC01FB2E6F5771097595771F0B
S11310A0880B990BD4DD28E132E741E35FE38FDE5F
S11310B0AF2D9801AE01FF900F911F91CF91DF9159
S11310C005DD3BCEFA01DC01AA0FBB1F9B01AC017D
S11310D0BF5728F422273327442750781FC0B7511D
S11310E088F4AB2F0024469537952795011CA395CA
S11310F0D2F3002069F0220F331F441FB395DAF3B3
S11311000DD0D2CC61307105A0E88A07B94630F41D
S11311109B01AC016627772788279078309621F0C9
S1131120208331834283538308959F3F31F091504C
S113113020F4879577956795B795880F911D9695B7
S1131140879597F908952F923F924F925F926F92ED
S11311507F928F929F92AF92BF92CF92DF92EF9243
S1131160FF920F931F93CF93DF93CDB7DEB76097B2
S11311700FB6F894DEBF0FBECDBF7C011B016A0120
S1131180FC0117821682838181FF2AC39E012F5F8F
S11311903F4F3901F7019381F10193FD859193FF4D
S11311A081911F01882309F417C3853239F493FD13
S11311B0859193FF81911F01853231F4B70190E04D
S11311C0AFD556016501E6CF10E0512C912CFFE11B
S11311D0F915D8F08B3279F038F4803279F0833213
S11311E0A1F4F92DF0612EC08D3261F0803369F4E1
S11311F0292D21602DC0392D3260932E892D8460D4
S1131200982E2AC0E92DE86015C097FC2DC020ED6A
S1131210280F2A3088F496FE06C03AE0139F200D6A
S11312201124122F19C08AE0589E200D1124522E29
S1131230E92DE0629E2E10C08E3231F496FCCCC2B1
S1131240F92DF0649F2E08C08C3621F4292D2068D6
S1131250922E02C0883641F4F10193FD859193FFEB
S113126081911F018111B3CF9BEB980F933020F430
S1131270992D9061805E07C09BE9980F933008F028
S113128059C1992D9F7E96FF16E09F73992E85363E
S113129019F49064992E08C0863621F4392F3068E9
S11312A0932E02C01111115097FE07C01C3350F445
S11312B044244394410E27E00BC0183038F027E053
S11312C017E005C027E09CE3492E02C0212F412CE2
S11312D0560184E0A80EB11CF601608171818281FF
S11312E09381042DA3012ED46C01F981FC87F0FFB6
S11312F002C0F3FF06C091FC06C092FE06C000E2E5
S113130005C00DE203C00BE201C000E08C858C70C7
S113131019F0011143C280C297FE10C04C0CFC8529
S1131320F4FF04C08A81813309F44A94141474F5D7
S113133028E0241578F588E0482E2CC096FC2AC0B5
S1131340812F90E08C159D059CF03CEFC3163FEF78
S1131350D30674F0892D8068982E0AC0E2E0F0E08C
S1131360EC0FFD1FE10FF11D8081803319F4115042
S11313701111F4CF97FE0EC044244394410E812FE3
S113138090E0C816D9062CF41C1904C044244394D4
S113139001C010E097FE06C01C141D0434F4C601FD
S11313A0019605C085E090E002C081E090E0011163
S11313B00196112331F0212F30E02F5F3F4F820F30
S11313C0931F252D30E08217930714F4581A01C097
S11313D0512C892D897041F4552031F0B70180E2F8
S11313E090E09ED45A94F8CF002321F0B701802FC7
S11313F090E096D493FC08C0552031F0B70180E307
S113140090E08ED45A94F8CF97FE4AC04601D7FE96
S113141002C0812C912CC60188199909F301E80FA7
S1131420F91FFE87ED87960124193109388B2F8720
S1131430012F10E01195019511093FEF83169306D2
S113144021F4B7018EE290E06BD4C814D9044CF0B7
S11314508F8598898815990524F4ED85FE85818109
S113146001C080E3F1E08F1A91082D853E852F5F3E
S11314703F4F3E872D878016910624F0B70190E0F8
S11314804FD4DBCFC814D90441F49A81963320F4A5
S1131490953319F43C8534FF81E3B70190E048C0EB
S11314A08A81813319F09C859F7E9C87B70190E0E7
S11314B037D4111105C094FC16C085E690E015C020
S11314C0B7018EE290E02CD41E5F82E001E0080FA9
S11314D0F301E80FF11D8081B70190E021D4802F42
S11314E00113F4CFE8CF85E490E0B70119D4D7FC19
S11314F006C0C114D10441F4EC85E4FF05C0D194C5
S1131500C194D1088DE201C08BE2B70190E008D408
S113151080E32AE0C216D1042CF08F5FFAE0CF1AE0
S1131520D108F7CFB70190E0FBD3B701C601C0964D
S1131530F7D349C1833631F0833779F0833509F025
S113154052C01FC0560132E0A30EB11CF6018081C7
S1131550898301E010E0630111C05601F2E0AF0E8F
S1131560B11CF601C080D18096FE03C0612F70E0EB
S113157002C06FEF7FEFC601C8D38C01F92DFF774E
S113158013C0560122E0A20EB11CF601C080D18026
S113159096FE03C0612F70E002C06FEF7FEFC601BB
S11315A0A9D38C01F92DF0689F2EF3FD18C0852D69
S11315B090E00817190798F4B70180E290E0B0D3DF
S11315C05A94F5CFF60197FC859197FE81916F01AE
S11315D0B70190E0A5D351105A9401501109011597
S11315E0110581F7F0C0843611F0893659F556019A
S11315F097FE09C024E0A20EB11CF601608171813E
S1131600828193810AC0F2E0AF0EB11CF6016081C1
S11316107181072E000C880B990BF92DFF769F2EF4
S113162097FF09C090958095709561957F4F8F4F76
S11316309F4FF0689F2E2AE030E0A301F0D3C82E1C
S1131640C6183EC0092D853721F40F7E2AE030E00C
S11316501DC0097F8F3691F018F4883559F0BCC04D
S1131660803719F0883711F0B7C0006104FF09C052
S1131670046007C094FE08C0066006C028E030E09D
S113168005C020E130E002C020E132E0560107FF4E
S113169009C084E0A80EB11CF601608171818281C9
S11316A0938108C0F2E0AF0EB11CF6016081718134
S11316B080E090E0A301B3D3C82EC6180F77902E14
S11316C096FE0BC0092D0E7FC11650F494FE0AC07D
S11316D092FC08C0092D0E7E05C0DC2C092D03C028
S11316E0DC2C01C0D12E04FF0DC0FE01EC0DF11D58
S11316F08081803311F4097E09C002FF06C0D394AF
S1131700D39404C0802F867809F0D39403FD10C0CD
S113171000FF06C01C2DD51478F4150D1D190CC03E
S1131720D51450F4B70180E290E0FAD2D394F8CF04
S1131730D51410F45D1801C0512C04FF0FC0B7017B
S113174080E390E0EDD202FF16C001FD03C088E7FC
S113175090E002C088E590E0B7010CC0802F867845
S113176051F001FF02C08BE201C080E207FD8DE26F
S1131770B70190E0D5D2C11630F4B70180E390E010
S1131780CFD21150F8CFCA94F301EC0DF11D808132
S1131790B70190E0C5D2C110F6CF15C0F4E0F5153D
S11317A050F584E0581A93FE1EC0011125C02C8503
S11317B023FF27C006E611E0392D3071932EF8017E
S11317C08491811121C0552009F4FCCCB70180E239
S11317D090E0A6D25A94F7CFF7018681978123C06F
S11317E08FEF9FEF20C0B70180E290E099D25A9426
S11317F05110F9CFDACF512CB701802F90E090D25D
S1131800D6CF0AE611E0D8CF91108052B70190E00C
S113181087D20F5F1F4FD3CF23E0251510F483E049
S1131820C1CF512CC4CF60960FB6F894DEBF0FBE63
S1131830CDBFDF91CF911F910F91FF90EF90DF907B
S1131840CF90BF90AF909F908F907F906F905F905C
S11318504F903F902F9008950F931F93CF93DF9352
S11318608230910510F482E090E0E091D203F0918F
S1131870D30320E030E0A0E0B0E0309719F14081DC
S113188051810281138148175907C8F084179507BD
S113189069F4109731F012960C93129713961C93D7
S11318A027C00093D2031093D30322C0211531051E
S11318B019F04217530718F49A01BD01EF01DF0133
S11318C0F801DBCF21153105F9F0281B390B243041
S11318D0310580F48A819B816115710521F0FB013A
S11318E09383828304C09093D3038093D203FE0135
S11318F0329644C0FE01E20FF31F8193919322506C
S11319003109398328833AC02091D0033091D1031F
S1131910232B41F420910202309103023093D1032E
S11319202093D0032091000230910102211531054A
S113193041F42DB73EB74091040250910502241B97
S1131940350BE091D003F091D103E217F307A0F433
S11319502E1B3F0B2817390778F0AC014E5F5F4F01
S11319602417350748F04E0F5F1F5093D10340935F
S1131970D0038193919302C0E0E0F0E0CF01DF91C6
S1131980CF911F910F910895CF93DF93009709F49E
S113199081C0FC01329713821282A091D203B091CC
S11319A0D303109781F420813181820F931F2091FA
S11319B0D0033091D1032817390751F5F093D1039F
S11319C0E093D00367C0ED0120E030E0CE17DF07DD
S11319D040F44A815B819E0141155105F1F0EA0111
S11319E0F5CFD383C28340815181840F951FC817DB
S11319F0D90759F488819981840F951F02969183A0
S1131A0080838A819B81938382832115310529F404
S1131A10F093D303E093D2033DC0E901FB83EA834F
S1131A2049915991C40FD51FEC17FD0761F48081CA
S1131A309181840F951F0296E9019983888382819D
S1131A4093819B838A83E0E0F0E012968D919C91D0
S1131A501397009719F0FD01DC01F7CF8D919C914C
S1131A6011979D012E5F3F4F820F931F2091D0034A
S1131A703091D1032817390769F4309729F410926B
S1131A80D3031092D20302C013821282B093D10303
S1131A90A093D003DF91CF9108958F929F92AF923C
S1131AA0BF92CF92DF92EF92FF92CF93DF93EC013C
S1131AB0688179818A819B81611571058105910510
S1131AC021F464E279ED8BE597E02DE133EF41E019
S1131AD050E003D249015A019B01AC01A7EAB1E4E9
S1131AE018D26B017C01ACEEB4EFA50194011DD2B8
S1131AF0DC01CB018C0D9D1DAE1DBF1DB7FF03C0C6
S1131B000197A109B04888839983AA83BB839F77EF
S1131B10DF91CF91FF90EF90DF90CF90BF90AF9087
S1131B209F908F900895B9CF86E092E0B6CFA0E061
S1131B30B0E08093060290930702A0930802B0934A
S1131B4009020895283008F027E03327DA01990FB5
S1131B50311D87FD916000966105710539F432608D
S1131B602E5F3D9330E32A95E1F708959F3F30F0CF
S1131B7080387105610509F03C5F3C5F3D9391300D
S1131B8008F08068911DDF93CF931F930F93FF920A
S1131B90EF92192F987F9695E92F96959695E90FD0
S1131BA0FF27E853FE4F99273327EE24FF24A7018C
S1131BB0E70105900894079428F4360FE71EF81EF1
S1131BC0491F511D660F771F881F991F0694A1F79F
S1131BD00590079428F4E70EF81E491F561FC11DEF
S1131BE0770F881F991F661F0694A1F70590079425
S1131BF028F4F80E491F561FC71FD11D880F991FBF
S1131C00661F771F0694A1F70590079420F4490FE7
S1131C10561FC71FD81F990F661F771F881F06946A
S1131C20A9F784911095177041F0D695C7955795EB
S1131C304795F794E7941A95C1F7EEE6F1E06894B6
S1131C401590159135916591959105907FE2739565
S1131C50E118F10A430B560BC90BD009C0F7E10C8C
S1131C60F11E431F561FC91FD01D7EF4703311F49B
S1131C708A95E6CFE894015030F0080F0AF4002763
S1131C80021708F4202F2395022F7A3328F079E3E2
S1131C907D932A95E9F710C07D932A9589F60694D9
S1131CA097956795379517951794E118F10A430BA3
S1131CB0560BC90BD00998F023957E9173957A330E
S1131CC008F070E37C932013B8F77E9170617D93E4
S1131CD030F0839571E37D9370E32A95E1F7112445
S1131CE0EF90FF900F911F91CF91DF91992787FD7E
S1131CF090950895FC010590615070400110D8F74B
S1131D00809590958E0F9F1F0895FC01615070403F
S1131D1001900110D8F7809590958E0F9F1F08951C
S1131D200F931F93CF93DF93FB01238121FD03C006
S1131D308FEF9FEF2CC022FF16C04681578124816C
S1131D4035814217530744F4A081B1819D012F5F6F
S1131D503F4F318320838C93268137812F5F3F4F00
S1131D603783268314C08B01EC01FB010084F185C9
S1131D70E02D0995892BE1F6D80116968D919C9159
S1131D801797019617969C938E931697CE01DF9121
S1131D90CF911F910F910895CF93DF93CDB7DEB705
S1131DA0AE014B5F5F4FFA0161917191AF01809178
S1131DB0D6039091D703C7D9DF91CF9108950F939C
S1131DC01F93CF93DF93E091D603F091D703238140
S1131DD021FF1BC08C01D0E0C0E0F80181918F018C
S1131DE06091D6037091D703DB011896ED91FC91B5
S1131DF01997882331F00995892B79F3DFEFCFEF19
S1131E00ECCF8AE00995892B19F08FEF9FEF02C080
S1131E108D2F9C2FDF91CF911F910F910895FA017F
S1131E20AA27283051F1203181F1E8946F936E7F15
S1131E306E5F7F4F8F4F9F4FAF4FB1E03ED0B4E006
S1131E403CD0670F781F891F9A1FA11D680F791F47
S1131E508A1F911DA11D6A0F711D811D911DA11D58
S1131E6020D009F468943F912AE0269F1124301968
S1131E70305D3193DEF6CF010895462F4770405D03
S1131E804193B3E00FD0C9F7F6CF462F4F70405DB2
S1131E904A3318F0495D31FD4052419302D0A9F70D
S1131EA0EACFB4E0A6959795879577956795BA9507
S1131EB0C9F700976105710508959B01AC010A2ECD
S1131EC006945795479537952795BA95C9F7620FA4
S1131ED0731F841F951FA01D0895052E97FB16F4EC
S1131EE000940FD057FD05D024D007FC02D046F44F
S1131EF008C050954095309521953F4F4F4F5F4F07
S1131F00089590958095709561957F4F8F4F9F4F61
S1131F10089531D0A59F900DB49F900DA49F800D7E
S1131F20911D11240895B7FFF4CFF3DF821B930BA7
S1131F300895A1E21A2EAA1BBB1BFD010DC0AA1F06
S1131F40BB1FEE1FFF1FA217B307E407F50720F01E
S1131F50A21BB30BE40BF50B661F771F881F991F99
S1131F601A9469F760957095809590959B01AC01E2
S1131F70BD01CF010895A29FB001B39FC001A39FEB
S1131F80700D811D1124911DB29F700D811D1124AE
S10B1F90911D0895F894FFCFA0
S1131F980000DA03200001000000140050C305000B
S1131FA800000002000000003F0500000000536F1D
S1131FB86C7563616F20656E636F6E7472616461C2
S1131FC8210D00506172746963756C613A2025644F
S1131FD820506F736963616F3A20256620466974DF
S1131FE86E6573733A2025660D0A0047657261634E
S1131FF8616F2025640D0A004D656C686F7220506E
S11320086F736963616F20256620636F6D2046696D
S1132018746E6573733A2025660D0A00536F6C75E8
S113202863616F206E616F20656E636F6E74726199
S11320386461210D004D656C686F7220706F73695F
S113204863616F20256620636F6D204669746E6531
S10D205873733A2025660D0A000098
S9030000FC
